:020000040800F2
:100000000010002071010008C5000008C5000008AC
:1000100000000000000000000000000000000000E0
:10002000000000000000000000000000C500000803
:100030000000000000000000C5000008C900000822
:10004000C5000008C5000008C5000008C50000087C
:10005000C5000008C5000008C5000008C50000086C
:10006000C5000008C5000008C5000008C50000085C
:10007000C5000008C5000008C5000008C50000084C
:10008000C5000008C5000008C5000008C50000083C
:10009000C5000008C5000008C5000008C50000082C
:1000A000C5000008C5000008C5000008C50000081C
:1000B000C5000008C5000008C5000008C50000080C
:1000C000C50000087047C04613490868004301D0C6
:1000D00001380860704702B40F490860086800439F
:1000E000FCD102BC704707B40648094901600648C4
:1000F00001600348016803221143016007BC704797
:1001000010E000E014E000E018E000E01CE000E097
:10011000E8030000FFFFFF000008002007B40C48C0
:100120000268012109020A43026007BC704707B454
:100130000848016810221143016007BC704707B4EA
:100140000448016810229143016007BC7047C04613
:10015000000000481400004807B404480168012268
:1001600052041143016007BC7047C046141002409E
:1001700072B6FFF7F1FFFFF7D1FFFFF7B4FF62B6EA
:10018000FFF7D5FF0448FFF7A6FFFFF7D8FF0248A7
:0C019000FFF7A1FFF4E7C046E803000001
:04000005080001707E
:00000001FF
